:100000000C947D0A0C94A50A0C94A50A0C94A50ADC
:100010000C94A50A0C94A50A0C94A50A0C94A50AA4
:100020000C94A50A0C94A50A0C9431140C94A014F9
:100030000C94A50A0C94A50A0C94A50A0C94A50A84
:100040000C94A50A0C94A50A0C94A50A0C94A50A74
:100050000C94A50A0C94A50A0C94A50A0C94D2162B
:100060000C94A50A0C94A50A0C94A50A0C94A50A54
:100070000C94A50A0C94A50A0C94A50A0C94A50A44
:100080000C94A50A0C94A50A0C94A50A0C94A50A34
:100090000C94A50A0C94A50A0C94A50A0C94A50A24
:1000A0000C94A50A0C94911A0C94A50A0000000067
:1000B000003E5B4F5B3E3E6B4F6B3E1C3E7C3E1CEE
:1000C000183C7E3C181C577D571C1C5E7F5E1C0034
:1000D000183C1800FFE7C3E7FF0018241800FFE7EB
:1000E000DBE7FF30483A060E2629792926407F05AE
:1000F0000507407F05253F5A3CE73C5A7F3E1C1CC4
:1001000008081C1C3E7F14227F22145F5F005F5F83
:1001100006097F017F006689956A6060606060946F
:10012000A2FFA29408047E040810207E2010080874
:100130002A1C08081C2A08081E101010100C1E0C7F
:100140001E0C30383E3830060E3E0E060000000011
:100150000000005F00000007000700147F147F14F8
:10016000242A7F2A1223130864623649562050003D
:1001700008070300001C2241000041221C002A1C29
:100180007F1C2A08083E0808008070300008080814
:100190000808000060600020100804023E51494534
:1001A0003E00427F400072494949462141494D3352
:1001B0001814127F1027454545393C4A49493141B9
:1001C000211109073649494936464949291E000087
:1001D00014000000403400000008142241141414DC
:1001E0001414004122140802015909063E415D59C8
:1001F0004E7C1211127C7F494949363E41414122D1
:100200007F4141413E7F494949417F090909013EFA
:10021000414151737F0808087F00417F4100204021
:10022000413F017F081422417F404040407F021C33
:10023000027F7F0408107F3E4141413E7F0909094A
:10024000063E4151215E7F09192946264949493216
:1002500003017F01033F4040403F1F2040201F3FDC
:100260004038403F63140814630304780403615961
:10027000494D43007F4141410204081020004141A3
:10028000417F04020102044040404040000307084F
:100290000020545478407F2844443838444444284B
:1002A000384444287F385454541800087E090218F2
:1002B000A4A49C787F0804047800447D400020407A
:1002C000403D007F1028440000417F40007C0478BE
:1002D00004787C080404783844444438FC18242406
:1002E0001818242418FC7C08040408485454542486
:1002F00004043F44243C4040207C1C2040201C3C03
:100300004030403C44281028444C9090907C4464F9
:10031000544C44000836410000007700000041368C
:10032000080002010204023C2623263C1EA1A16112
:10033000123A4040207A3854545559215555794144
:100340002154547841215554784020545579400C1B
:100350001E527212395555555939545454593955FC
:100360005454580000457C410002457D420001453F
:100370007C40F0292429F0F0282528F07C545545AC
:10038000002054547C547C0A097F4932494949323F
:100390003248484832324A4848303A4141217A3A54
:1003A00042402078009DA0A07D39444444393D401E
:1003B00040403D3C24FF2424487E4943662B2FFCCB
:1003C0002F2BFF0929F620C0887E09032054547979
:1003D000410000447D413048484A32384040227A4A
:1003E000007A0A0A727D0D19317D2629292F2826C7
:1003F0002929292630484D402038080808080808CF
:100400000808382F10C8ACBA2F102834FA00007B27
:10041000000008142A142222142A1408950022002D
:1004200095AA005500AAAA55AA55AA000000FF00E7
:10043000101010FF00141414FF001010FF00FF1024
:1004400010F010F0141414FC001414F700FF000056
:10045000FF00FF1414F404FC141417101F10101FD5
:10046000101F1414141F00101010F0000000001FC3
:10047000101010101F10101010F010000000FF10CE
:100480001010101010101010FF10000000FF1400CA
:1004900000FF00FF00001F10170000FC04F41414FC
:1004A0001710171414F404F40000FF00F7141414C8
:1004B00014141414F700F7141414171410101F1048
:1004C0001F141414F4141010F010F000001F101F6B
:1004D0000000001F14000000FC140000F010F010D9
:1004E00010FF10FF141414FF141010101F00000050
:1004F00000F010FFFFFFFFFFF0F0F0F0F0FFFFFF54
:100500000000000000FFFF0F0F0F0F0F38444438AA
:10051000447C2A2A3E147E02020606027E027E02E5
:1005200063554941633844443C04407E201E200604
:10053000027E020299A5E7A5991C2A492A1C4C7241
:1005400001724C304A4D4D303048784830BC625AC8
:10055000463D3E494949007E0101017E2A2A2A2A58
:100560002A44445F444440514A444040444A514034
:100570000000FF0103E080FF000008086B6B0836F5
:1005800012362436060F090F060000181800000066
:100590001010003040FF0101001F01011E00191D55
:1005A0001712003C3C3C3C0000000000000006012B
:1005B0001501260137014A015D01720188019F0181
:1005C000B801D201EE010B022A024B026E02930225
:1005D000BA02E40210033F037003A403DC03170410
:1005E00055049704DD0427057505C80520067D061A
:1005F000E0064907B8072D08A9082D09B9094D0AD1
:10060000EA0A900B400CFA0CC00D910E6F0F5A10B5
:1006100053115B1272139A14D41520178018F51910
:10062000801B231DDE1EB420A622B524F0F89C8E6C
:100630008783878E9CF8F00000FEFF03030303030B
:10064000070EFCF80000FEFF0303030303070EFC84
:10065000F80000FFFF00000000000000FFFF0000A6
:10066000FEFF8383838383C7EE7C380000F8FC0E93
:1006700007030303070EFCF800003F7FE0C0808003
:10068000C0E07F3FFFFF01010101010101FFFF0009
:1006900000FFFF0C0C0C0C1C3E77E3C100007FFF39
:1006A000C0C0C0C0C0E0703F1F00001F3F70E0C06E
:1006B000C0C0E0703F1F00007FFFC1C1C1C1C1E3E6
:1006C000773E1C00001F3F70E0C0C0C0E0703F1FBD
:1006D000000000000001FFFF01000000D5F08D14B4
:1006E000A1C881CFD9F1AF20007F3F90A8A4924A42
:1006F0002AA9A4920A32525249259554B0D9763B80
:100700005425955452492595541292525249053F09
:1007100039E79C73CE39E79C838BB6DBED76D82C1A
:100720009D0EBADA6EB7DBED767853492515E4678E
:10073000D3E53AD7B9CE75EE52D58ADCA64BA55291
:10074000A9542A954AA7A34FA7D325D3952C9D8EAC
:10075000DFA6CB75AE739DEBDCA5AA15B94D974E00
:10076000A7D3E9BC8592A4924A2AA9A4924AC2536B
:10077000524925955412AA0A5DE93064D3A5AA52BC
:1007800055A9AA5455AA2A55AD8A5A6EB73EC274C5
:100790003A5D6E7BB993950E49E9D0944EA7D3E9A3
:1007A000741855524985B9ED76BBDD6E87A3B6DB6B
:1007B000ED76BB1DCF4A2AA930A49C53DB743A9D29
:1007C0005E472FD7252B59C94A56B2922DA9E5BAB3
:1007D000DCA5D3E97C5EF9F4362AA7A44AA552A980
:1007E000542A954AA7E3774AAA743A9D4EA7720AFB
:1007F0001E4BA78387A4924A2AA9A4924A424DE994
:10080000F53A9D4E67B7B16F954EA7D3E97472F66E
:10081000ADD2E9743A9DCD86A6ADD2E95CE73AD770
:10082000B9CE75E45B25D3E9747ABD0EA34A2AA933
:10083000F0BBDD0E076DB7C341CE39E79C730ED90F
:100840004A2AA9A4924A2AA9E02FE79C73CE390725
:10085000312AA9A4924A2AFCA7D34143E9743A1D3C
:10086000BA9D73CE39E79C73CE215F4925155CA5EF
:10087000A4920AB2DA6EB7DBB1087F3F996C25DB30
:100880009EEB5CE73AD7B9CE75AE739DEB5CE73A69
:10089000D7B9CE75AE739DEB5CE73AD7B9CE75AEDE
:1008A000739DEB5CE73AD7B9CE75AE739DEB5CE711
:1008B0003AD7B9CE75AE739DEB5CE73AD7B9CE7532
:1008C000AE739DEB5CE73AD7B9CE75AE739DEB5C2A
:1008D000E73AD7B9CE75AE739DEB5CE73AD7B9CEA0
:1008E00075AE739DEB5CE73AD7B9CE75AE739DEBF1
:1008F0005CE73AD7B9CE75AE739DEB5CE73AD7B9F2
:10090000CE75AE739DEB5CE73AD7B9CE75AE739DED
:10091000EB5CE73AD7B9CE75AE739DEB5CE73AD79F
:10092000B9CE75AE736D4B6EF9F83CF83BCFC7C7C7
:10093000E791A85C369D4EA7C39353E9BCE376725A
:100940001F6D72E9B89C4BA7D3E9743AE8D1B9742A
:100950003A9D4EA71D97F2A129A7C89C4BA7D3E9A2
:10096000743A3AE7D2E9743A9F1F6F9E8F8FCFE3B4
:10097000CF23299D565CDEA7D3E994F3CE7BBE74CA
:10098000B4DEFBD3E9743AC8D2E3CBF339EF383D98
:10099000A73F9D4EA723F72E9DDED62EBB52C8F350
:1009A0007C7C7C1E7FEFAE64ED6A5795AA4A55D5D4
:1009B00077AE5D9D4BA7D3E9744A954EA9D2E974F1
:1009C0003A9D4EA93AD7AEEEAA5455AA2A55BBDA9B
:1009D00055B21CBCA87257B276B5AB4A55A5AA4A07
:1009E000D5B9CE752E9D52A554E9743A9D52252B4A
:1009F00059C94A56B29295ACCEB5AB7395AC642545
:100A00003FB5BAB4C39BE7E3E3F3F8F3F4E9743614
:100A10009DAE5CE7529DEB5C27B7DBED76D9B9CE96
:100A2000752AD7B97C3A9D4FA7E3F554526DB79517
:100A30002CA57AD5AB5E955295DC6E25FBCE396739
:100A4000B7DBED76BBDD6E77CE393BAFA74FA7B3F3
:100A5000E974E53A97EA5CE73AB9DD6EB7CBCE7553
:100A6000AE53B9CEE5D3E97C3A1DAFC79BE7E3E3CC
:100A7000F3984B2ABB5452D9ED76BBDD6EB7DBED54
:100A800076BBDD6EB7DBED76BBDD6EB7DBED76A951
:100A9000A4B24BA593CA6E974A2ABB5DDDB7BA953F
:100AA000BA7329E75257F253DB9DBB54C9536FCB3E
:100AB0009DFACE752EF5E9A4924AA7D3E9A4B24BCC
:100AC0002595DD6EB7DBED76BBDD6EB7DBED76BB76
:100AD000DD6EB7DBED76BBDD6E974A2ABB54C8F3FB
:100AE0007C7C7659F65CE73AD7B9CE75AE739DEB50
:100AF0005CE73AD7B9CE75AE739DEB5CE73AD7B9F0
:100B0000CE75AE739DEB5CE73AD7B9CE75AE739DEB
:100B1000EB5CE73AD7B9CE75AE739DEB5CE73AD79D
:100B2000B9CE75AE739DEB5CE75ADD5DDDD5EA7637
:100B300075EA55DFD555FFFF5FF55DADFAD4BB5AB9
:100B4000DD5DDDD5EACE75AE739DEB5CE73AD7B9D6
:100B5000CE75AE739DEB5CE73AD7B9CE75AE739D9B
:100B6000EB5CE73AD7B9CE75AE739DEB5CE73AD74D
:100B7000B9CE75AE739DEB5CE73AD7B9CE75AE735F
:100B80009DEB5CE73AD7B9CE75AEEDC9CA32010527
:100B90000000010006000B000C00000102039F4052
:100BA00030FC049F40149D189F9F11A30AA3FE7F51
:100BB0003F18F352A5D3E9743A9D4EA752A9542A7F
:100BC000954AA5D3E9743A9D4EA7D3E9743A9D4E50
:100BD000A7D3E9743A9D4EA7D3E9743A9D4EA7D3A3
:100BE000E9743A9D4EA7D3E9743A9D4EA7D3E974B0
:100BF0003A9D4EA7D3E9743A9D4EA7D3E9743A9D26
:100C00004EA7D3E9743A9D4EA7D3E9743A9D4EA7F7
:100C1000D3E9743A9D4EA752A9542A954AA5D3E91F
:100C2000743A9D4ECB4396A74DE7D44AAD7AA74A76
:100C3000E52A7BC9D45755ADD443828A544945AA85
:100C4000C8D2E9B4924AA6D3D1293BB21404A8561B
:100C5000D57F25B397AA5CAA734E752995533E1D7F
:100C60009FC797E74B47AFFCBEBADDA5EE4AAD94F0
:100C7000CB66D34BE7B6DB745098F44A7A25BD9225
:100C80001E457CFCDEEFF7FBBD87C3D2E9EDD6C97C
:100C90006DBE944B2DBBBED4AD64A5568A3C1DAD34
:100CA000C79727534AD5ADCA752AD5395BB6B2E97D
:100CB0007C5567CBAA542A57D9C896D94AE615FC61
:100CC000E59CE374CED1A6D339E79C4EA7E372B876
:100CD000DA3A084CB97465F3CAE7739D6A5BB6AA41
:100CE0003A9DCF66CBDEB9542A976AA55449E53DB3
:100CF000BEBC4FA7C39353B9FE52BD7229E72AD792
:100D0000D9E476AB7C3A9D736CE9743A9D4EA7D3D7
:100D1000E9743A9D4EA7D3E9743A9DDE2A79B9FF6A
:100D20006D5DA73E9D4E7DE7AAFB539FFAD4A75663
:100D30005D95EA5CEDD2A9AFEBEDFFE594DCA6D3BF
:100D4000E9743A9D4EA7D3E9743A9D4EA7D3E9744E
:100D5000644EA7D33925B7FB64272BE954AEEBDDEE
:100D6000A55CCAA1289D8ECEE3CB63D0A5DCAA5793
:100D7000EDDCBB821FF7FBDFA57EF7D2A7AA939518
:100D8000ACAECEB6D4BB772EB9DB0D4FBA945BF5C3
:100D9000AA9D7B57F8F3F8F2289267B331C968D35C
:100DA000CAFA7C5E4293CBFEE45C9DEBD876DFC949
:100DB0007C50A43C9B8D49469B56D6E7F392DF239B
:100DC000ABA54EA7D3E9542AD7C9CAAE6E25955410
:100DD000B75D56AE53A9743A9D4EA7D3E9743A9DB8
:100DE0004EA7D3E9743A9D4EA7D3E9743A9D4EA716
:100DF000D349E56A57BBDAD5AAB7ABDED5B2729D47
:100E00004AA552B94E56AE56BD5DF5AE76B5AB5D50
:100E10002D954EA7D3E9743A9D4EA7D3E9743A9D18
:100E20004EA7D3E9743A9D4EA7D3E9743A95CA7593
:100E3000B2B2AB5B4925D56D9795EB542A9D4EA771
:100E4000D329E96304050000010004000B000C0035
:100E5000000102039F40309F40149D18FC049F9F97
:100E600030A335A3FE7F3F996C25DB9EEB5CE73A10
:100E7000D7B9CE75AE739DEB5CE73AD7B9CE75EABC
:100E8000539FFAD4E73AD7B9CE75AE739DEB5CE7C2
:100E90003AD7B9CE75AE739DEB5CE73AD7B9CE754C
:100EA000AE739DEB5CE73AD7B9CE75AE739DEB5C44
:100EB000E73AD7B9CE75AE739DEB5CE73AD7B9CEBA
:100EC00075AE739DEB5CE73AD7B9CE75AE739DEB0B
:100ED0005CE73AD7B9CE75AE739DEB5CE73AD7B90C
:100EE000CE75AE739DEB5CE73AD7B9CE75AE739D08
:100EF000EB5CE73AD7B9CE75EA539FFAD4E73AD715
:100F0000B9CE75AE739DEB5CE73AD7B9CE75AE73CB
:100F10006D4B6EF9F83C1AD339B552ABDEA952B914
:100F2000CA5E32F555552BF5209CD4AAFAAF64F66B
:100F300052954B75CEA92EA572CAA7C39FE7E3E3CE
:100F4000F3F84B47AFFCBEBADDA5EE4AAD94CB66D5
:100F5000D34BE7B6DB74D07E3ABDDD3AB9CD97729C
:100F6000A965D797BA95ACD44A91A743A3E7E3E321
:100F7000F3C8534AD5ADCA752AD5395BB6B2E97CF8
:100F80005567CBAA542A57D9C896D94AE61524AF33
:100F90005CBAB279E5F3B94EB52D5B559DCE67B31A
:100FA00065EF5C2A954BB552AAA4C29BE7E3E3F335
:100FB000784BA7C39353B9FE52BD7229E72AD7D9FC
:100FC000E476AB7C3A9D7370BCD3E9744EC9ED3EB8
:100FD000D9C94A3A95EB7A77299772284AA7439F4D
:100FE000E7E3E3F3187729B7EA553BF7AEC040B91A
:100FF000945BF5AA9D7B57F8F67C7C7C1EA5F26C71
:101000003626196D5A599FCF4B5048F26C36261927
:101010006D5A599FCF4B7C7A3E3EBB2C7BAE739D65
:10102000EB5CE73AD7B9CE75AE739DEB5557775762
:10103000A75EF576BBEA53DFD5D5BDEA5CE73AD7C4
:10104000B9CE75AE739DEB5CE73AD7B9CE75AE738A
:101050009DEB5CE73AD7B9CE75AE739DEB5CE73A92
:10106000D7B9CE75AE739DEB5CE73AD7B9CE75AE06
:10107000739DEB5CE73AD7B9CE75AE739DEB5CE739
:101080003AD7B9CE75AE739DEB5CE73AD7B9CE755A
:10109000AE739DEB5CE73AD7B9CE75AE739DEB5C52
:1010A000E77AD5D5DDD5A957BDDDAEFAD47775750C
:1010B000AF3AD7B9CE75AE739DEB5CE73AD7B9CEF0
:1010C000B53D59592608083C4295A1A195423C3CA2
:1010D0004AA1A1C981423C3C4281C9A1A14A3C0626
:1010E00000000100020007000A00110000010203D5
:1010F0009F9F40149D189FFC059F402041FCA743E3
:10110000FEFC04FE08100E0E0EFFFF0E0E0E707099
:1011100070FFFF7070701008FEC68292FE9283838B
:10112000838392FE9282C6FE1010C0007C8292835E
:1011300085798545390101FE8000010202718F8C9D
:1011400074040404748C8C73000F0808FFC3A59901
:1011500099A5C3FF0707D3CAA5BEFB7FF7CEAD0194
:101160007F3F996C25DB9EEB5CE73AD7B9CE75AE35
:10117000739DEB5CE73AD7B9CE75AE739DEB5CE738
:101180003AD7B9CE75AE739DEB5CE73AD7B9CE7559
:10119000AE739DEB5CE73AD7B9CE75AE739DEB5C51
:1011A000E73AD7B9CE75AE739DEB5CE73AD7B9CEC7
:1011B00075AE739DEB5CE73AD7B9CE75AE739DEB18
:1011C0005CE73AD7B9CE75AE739DEB5CE73AD7B919
:1011D000CE75AE739DEB5CE73AD7B9CE75AE739D15
:1011E000EB5CE73AD7B9CE75AE739DEB5CE73AD7C7
:1011F000B9CE75AE739DEB5CE73AD7B9CE75AE73D9
:101200009DEB5CE73AD7B9CE75AE736D4B6EF9F8CE
:101210003C8274E9743A9DCF4BD6772A9D777E4AFB
:101220008953A7D279472DE53E144938D6A974DEF3
:10123000713B954D67D3E97474E9745AA74BA7C302
:1012400092E7E3E3F3FCBE743A9DCE2E5B52799FA6
:101250004EA7937BEB3D0EBD4FA7D329E79DF73EED
:10126000BFDFEF89B89CCAA6B3E9743ABA743AAD45
:10127000D3A5D3D169B5DF47ACA9E4D9743A9D0EA3
:1012800083DEA7D3E994F3CE5B9F4F873F3EBC79C3
:101290003E3E3ECF9F4E976E57D5D7AB5E55F7AECD
:1012A0002CBEA2532A55EE72A752A9542A954AA5DC
:1012B000D2A5543A9D4EA7D3A554BA944AA7D34970
:1012C000E7A42C45667D3E1DFEF8F83D5F7EBF3FDE
:1012D000EF3D8AD269892B5D3A5DC94A56B292299F
:1012E00055DAF1A7D3E9B26FABBB577D557D5B8B68
:1012F0002FCFC7C7E7F1A5A4B2DBED76A9A4D2E949
:10130000743A9D4EA7D34925954EA7D3E9743A9DCB
:101310004EA7D3E9743A9D4EA7934A2ABD55F2725F
:10132000FFDBBA4EA99295AC94AA73D5F7555FF539
:10133000555FB5BAAAAAEEAA5DB2525FD7DBFFCB62
:1013400029B9AB743A59C94A56B29295AC743A9DD0
:101350004EA793CA6EB7DBED76BB5D2A9D4EA7D331
:10136000E974524965B7DBED52498534CFC7C7E709
:10137000E1E3FDFE77A9DFBDF4A9EA6425ABABB3D9
:101380002DF5EE9D4BEE76C3CA9E8F8FCF43DBCB00
:10139000FEE45C9DEBD876DFC97CF0B5E7E3B3CB28
:1013A000B2E73AD7B9CE75AE739DEB5CE73AD7B9E1
:1013B000CE75AE739DEB5CE73AD7B9CE75AE739D33
:1013C000EB5CE73AD7B9CE75AE739DEB5CE73AD7E5
:1013D000B9CE75AE739DEB5CE73AD7B9CE75AE73F7
:1013E0009DEB5CB7BAEAABBEEAABFE3FF5FF55DF5B
:1013F000D5D5BDEA5557775757FD7FEAFFABBEEA13
:10140000ABBEEA5B9DEB5CE73AD7B9CE75AE739D98
:10141000EB5CE73AD7B9CE75AE739DEB5CE73AD794
:10142000B9CE75AE739DEB5CE73AD7B9CE75AE73A6
:101430009DEB5CE73AD7B9CE75AE739DEB5CE73AAE
:10144000D7B9CE75AE736D4F5696090500000100F1
:10145000020009000A00000102039F9F40309D180E
:10146000FC049F9F2FA737A733A331A72EA332A336
:1014700033A22EA130A233A338A334A335A331A3C2
:10148000FE080B0002020200000904000001020233
:1014900000000524001001052401010104240206B6
:1014A000052406000107058103100040090401001E
:1014B000020A00000007050202400000070583023F
:1014C0004000000403090412010002EF0201404140
:1014D00023368000010102030141726475696E6F59
:1014E000204C4C430041726475696E6F204C656FEF
:1014F0006E6172646F00E81D132611241FBECFEFCA
:10150000DAE0DEBFCDBF11E0A0E0B1E0E2E3F4E558
:1015100002C005900D92AC38B107D9F728E0ACE8CD
:10152000B1E001C01D92A935B207E1F71AE0CCE79E
:10153000DAE004C02197FE010E941428CB37D107BE
:10154000C9F70E94161E0C940C2A0C940000EDEEB4
:10155000F3E0A0E0B8E000800EBC8111012C1197EF
:10156000A0FDFDCF0192B9F70DB40895480F592F92
:10157000511D1416150684F5803891056CF597FFFA
:1015800002C090E080E04138510514F040E850E09E
:10159000481BFB01E770FF2721E001C0220FEA95FD
:1015A000EAF777FF02C0695F7F4FFB0133E0F595F3
:1015B000E7953A95E1F7F695FE2FEE27F795E79533
:1015C000E80FF91FE351FC4F415030F08191DF01EA
:1015D0001197822B8C93F8CF0895FC0180910F0313
:1015E000882311F13FB7F89482E08093E9002091BD
:1015F000F200822F90E01816190614F481E090E0B2
:10160000882339F0289844E640930E034091F10076
:101610004083222339F02091F200211103C02BE6F0
:101620002093E8003FBF08958FEF9FEF08952FB7F5
:10163000F89483E08093E9009091E800892F80720C
:1016400095FF04C09091F20080E4891B2FBF08959C
:101650008091060381110DC082E08093020384E033
:1016600080930303109205031092040381E080939A
:10167000060382E093E00895CF93DF931F92CDB7E6
:10168000DEB76983DC01ED91FC910280F381E02DEE
:1016900041E050E0BE016F5F7F4F09950F90DF91F1
:1016A000CF91089583E08093E9008091F200882330
:1016B00019F08AE38093E80008950E94170B90E0E8
:1016C0000895CF93DF931F92CDB7DEB7FC018485D9
:1016D000958597FD08C02FEF3FEF358724870F9042
:1016E000DF91CF910895CE0101960E94ED0A0197F6
:1016F00019F4898190E0F3CF8FEF9FEFF0CF0F9334
:101700001F93CF93DF931F92CDB7DEB78C01FC01FF
:101710008485958597FF0BC0CE0101960E94ED0A46
:10172000019771F4898190E0F80195878487F80129
:10173000848595850F90DF91CF911F910F9108952A
:101740008FEF9FEFF1CFFC018485958597FD0BC04E
:101750009FB7F89482E08093E9008091F2009FBFE8
:1017600090E0019608959FB7F89482E08093E90095
:101770008091F2009FBF90E008954091FC0250914B
:10178000FD022091FA023091FB0242175307B4F494
:101790009091E8009570E1F39091E80092FD19C0F6
:1017A0008093F1008091FC029091FD0201968F736D
:1017B0009927892B19F48EEF8093E8008091FC0221
:1017C0009091FD0201969093FD028093FC0281E0CE
:1017D000089580E00895DF92EF92FF920F931F9398
:1017E000CF93DF93D82E8A01EB017B01E40EF51E27
:1017F000CE15DF0559F0D7FE12C0FE0184910E947C
:10180000BD0B21968111F4CF0FEF1FEFC801DF91BF
:10181000CF911F910F91FF90EF90DF9008958881F5
:10182000EECF0F931F93CF93DF931F92CDB7DEB709
:1018300082E0898342E450E061E874E180E80E943C
:10184000EB0B0E94280BDC0112960D911C910115E7
:10185000110589F0D801ED91FC910280F381E02D12
:10186000BE016F5F7F4FC801099597FD04C0F80165
:1018700000851185ECCF89810F90DF91CF911F9169
:101880000F910895615030F02091F100FC01208308
:101890000196F8CF289884E680930E030895AF92BE
:1018A000BF92CF92DF92EF92FF920F931F93CF934D
:1018B000DF936C017B018B01040F151FEB015E01AF
:1018C000AE18BF08C017D10759F06991D601ED9144
:1018D000FC910190F081E02DC6010995892B79F7E3
:1018E000C501DF91CF911F910F91FF90EF90DF9095
:1018F000CF90BF90AF9008953FB7F8948091A60124
:101900009091A701A091A801B091A90126B5A89B2B
:1019100005C02F3F19F00196A11DB11D3FBFBA2F81
:10192000A92F982F8827BC01CD01620F711D811D41
:10193000911D42E0660F771F881F991F4A95D1F7C6
:1019400008958F929F92AF92BF92CF92DF92EF92C3
:10195000FF926B017C010E947C0C4B015C01C11465
:10196000D104E104F104B9F00E947C0C68197909F2
:101970008A099B09683E73408105910580F321E047
:10198000C21AD108E108F10888EE880E83E0981E9B
:10199000A11CB11CE4CFFF90EF90DF90CF90BF90DF
:1019A000AF909F908F9008958F929F92AF92BF9229
:1019B000CF92DF92EF92FF920F931F93CF93DF931B
:1019C0006C017B018A0180910D01882309F45CC0C0
:1019D00080910F03882309F457C08091010380FF91
:1019E00005C08091E00082608093E000E801B12CA6
:1019F0008AEFA82E93E0892E2AE3922E209711F4E5
:101A0000BB20D9F10E94170B81110AC0AA94AA2009
:101A1000D9F161E070E080E090E00E94A10CEECF8F
:101A20008C171D0611F00CF08C2F9FB7F894809244
:101A3000E9002091E80025FD02C09FBFDFCF282FDD
:101A400030E0C21BD30BF701815020F0419140934D
:101A5000F100FACFE20EF31EBB2021F09092E800D5
:101A6000B12CEBCF8091E80085FDE7CF9092E800A4
:101A7000BB24B394209709F3F3CF5D9884E6809359
:101A80000003101611063CF081E090E0F60193830C
:101A9000828310E000E0C801DF91CF911F910F9188
:101AA000FF90EF90DF90CF90BF90AF909F908F907E
:101AB000089590E0880F991FE0911203F0911303AD
:101AC000E80FF91F85919491209110033091110333
:101AD000820F931F08956F927F929F92AF92BF9251
:101AE000CF92DF92EF92FF920F931F93CF93DF93EA
:101AF000DC01FA01C4913196E4914E5F5F4FEC2E08
:101B0000F12C2223E1F001E010E09E2F977011F4F8
:101B100010E000E08E2F869586958695800F912F98
:101B2000911D8E9D80018F9D100D9E9D100D112485
:101B3000209FC001219F900D1124480F591FC701FC
:101B40008A0F9B1F009709F46FC0A038B1050CF0F5
:101B50006BC09B012E0F311D232B09F465C060342F
:101B600071050CF061C04115510509F45DC0F62FF7
:101B7000F7709F2E23E0759567952A95E1F7362F2C
:101B800020E82A1B803891050CF42C2F91E08E2F31
:101B9000877009F490E0E695E695E6959E0FFB01C7
:101BA000E90FF11D399714F098E0961BFB01F695AB
:101BB000FE2FEE27F795E795AE0FBF1FC92C092C16
:101BC000000CDD08832F861B891770F5ED01C351CA
:101BD000DC4F10E000E0021708F5FA01E00FF11FFA
:101BE000E491F0E03F010C2C02C0660C771C0A94D3
:101BF000E2F737FD03C0888186298883992051F058
:101C0000373044F45E0180E8A80EB11CF5018081F4
:101C1000872980830F5F1F4F2196DDCF4E0D5F1DFB
:101C2000A058BF4F3F5FCECFDF91CF911F910F9153
:101C3000FF90EF90DF90CF90BF90AF909F907F90FC
:101C40006F9008952D9A0895BC0190E080E00C9467
:101C5000A10C8FB18095807F669B88601C9B8460FF
:101C600008953E9A3F9A08959091F702982329F497
:101C70009091F802982381E009F480E00895CF93D1
:101C8000C82F0E94290E982F9C2381E09C1380E08E
:101C9000CF9108951F93CF93DF93DC0130E020E0D4
:101CA00050E040E011E0C1E0D0E02617370791F1A5
:101CB00014968C911497811115C014961C93149747
:101CC00012968D919C911397ED91FC911197E80FCD
:101CD000F91FE4911596EC931597019613969C9332
:101CE0008E93129714969C91149715968C91159734
:101CF000892349F0FE01022E02C0EE0FFF1F0A9455
:101D0000E2F74E2B5F2B990F14969C9314972F5F3D
:101D10003F4FCBCFCA01DF91CF911F9108952F92F2
:101D20003F924F925F926F927F928F929F92AF926B
:101D3000BF92CF92DF92EF92FF920F931F93CF93B8
:101D4000DF93CDB7DEB72D970FB6F894DEBF0FBE89
:101D5000CDBF5C018B015A8349831C821B821D828B
:101D60001E8268E070E0CE0101960E944A0E019644
:101D70001C0168E070E0CE0101960E944A0E7C01D1
:101D800061E070E0CE0101960E944A0E91012A0D99
:101D90003B1D121613060CF0B3C097012F5F3F4F87
:101DA000A901400F511F141615060CF0A9C03801E7
:101DB00047E064227724A80173E0559547957A950A
:101DC000E1F759874887890137FF02C0095F1F4F34
:101DD00063E0159507956A95E1F727703327232B64
:101DE00011F00F5F1F4F482E51E05F83512CF12CF3
:101DF000E12CD12CC12C88E090E09C0126193709F8
:101E00003D872C87C016D1060CF07AC088248394B5
:101E1000912C61E070E0CE0101960E944A0E892B60
:101E200021F432E0830E911CF4CFB401CE0101966F
:101E30000E944A0E01969B878A8790E080E04A853F
:101E40005B858417950708F058C0442011F05F8126
:101E5000552AAF81AA0F09F04AC0288539852C0D73
:101E60003D1DA9014F5F5F4F4930510580F5A50128
:101E70004E0D5F1D4038510550F5B9017695762F0E
:101E80006627779567956A0D7B1D6E0D7F1D852CE6
:101E9000912CFB01E351FC4FA401062C01C0440F1F
:101EA0000A94EAF75081452B40836114710479F05C
:101EB0002730310561F0FB01E359FB4F0C8402C070
:101EC000959487940A94E2F75080852880822FEFBA
:101ED000E21AF20AE214F3046CF03FEFC31AD30AD9
:101EE00041E04F83F12CE12C01965A2EA8CFAF830D
:101EF000A52DFACF51E05F83F7CF81E0482682CF4E
:101F00002D960FB6F894DEBF0FBECDBFDF91CF91F7
:101F10001F910F91FF90EF90DF90CF90BF90AF9007
:101F20009F908F907F906F905F904F903F902F90F9
:101F3000089580389105B8F460347105A0F420E16B
:101F400091E061FD94E060FD990F62FD9295687FDC
:101F5000269FD0011124A80FA351BC4F8C9140FFA4
:101F600003C0892B8C93089590958923FBCF2F92E2
:101F70003F924F925F926F927F928F929F92AF9219
:101F8000BF92CF92DF92EF92FF920F931F93CF9366
:101F9000DF93EC018B017A016901C61AD70AD7FEDB
:101FA00003C0D194C194D10847018C1A9D0A97FEB1
:101FB00003C09194819491088C149D0454F49E2D37
:101FC0008F2D7901292F382F9C2F8D2FE801092F74
:101FD000182FEC16FD0654F4902F812F8901292F1C
:101FE000382F9C2F8D2FE701E92EF82E17012C1A80
:101FF0003D0A2901401A510A57FE03C051944194E9
:102000005108310137FE03C08FEF681A780A7594C2
:1020100067948FEF021713070CF481E0A82E880F46
:10202000BB08EC16FD06A4F041E0BE01C8018C140B
:102030009D0414F0B801CE010E94990F6418750830
:1020400077FE04C00A0D1B1D620C731C2196E9CF9C
:10205000DF91CF911F910F91FF90EF90DF90CF9084
:10206000BF90AF909F908F907F906F905F904F90B8
:102070003F902F9008952F923F924F925F926F92D0
:102080007F928F929F92AF92BF92CF92DF92EF9208
:10209000FF920F931F93CF93DF937C016B018824F2
:1020A0008394912CD0E0C0E005E010E096EF692E1B
:1020B00077247A942CEFA22EBB24BA94842F8470B8
:1020C000582E842F8270482E842F8870382E4170AD
:1020D000242E219682E0880E911CA80CB91C552054
:1020E00091F041E0B8016C0D7D1DC7018C0F9D1F63
:1020F0000E94990F41E0B6016C0F7D1FC8018E0D43
:102100009F1D0E94990F442091F041E0B601601B91
:10211000710BC7018C0F9D1F0E94990F41E0B60102
:102120006C1B7D0BC8018E0D9F1D0E94990F3320E3
:1021300091F041E0B6016C0F7D1FC701801B910B30
:102140000E94990F41E0B8016C0D7D1DC7018C1BE9
:102150009D0B0E94990F222091F041E0B6016C1B6B
:102160007D0BC701801B910B0E94990F41E0B601C6
:10217000601B710BC7018C1B9D0B0E94990FC01730
:10218000D10754F4B7FCA5CF0150110982E0680EC5
:10219000711CA60CB71C9DCFDF91CF911F910F91A1
:1021A000FF90EF90DF90CF90BF90AF909F908F9077
:1021B0007F906F905F904F903F902F9008958F92F7
:1021C0009F92AF92BF92CF92DF92EF92FF920F93C6
:1021D0001F93CF93DF936D3089F0C090EE02D090C3
:1021E000EF026A30D1F41092F1021092F00288E00E
:1021F000C80ED11CD092EF02C092EE0281E090E0B6
:10220000DF91CF911F910F91FF90EF90DF90CF90D2
:10221000BF90AF909F908F9008950091F002109121
:10222000F102E5E06E9FE0011124C455DF4F480143
:10223000F12CF5E0E12CFF1629F0CE010196FE010C
:10224000E490EC01B12CA12C4E2D4170B6016A0D29
:102250007B1DC4010E94990FE694FFEFAF1ABF0ADD
:1022600088E0A816B10481F7F394EFEF8E1A9E0A66
:10227000F6E0FF12DECF0A5F1F4F1093F1020093CA
:10228000F002BCCFCF92DF92EF92FF9284EB91E00D
:1022900040E050E060E272E4C12CD12C20E8E22E54
:1022A0002FE3F22EFC0126E030E04583568367835E
:1022B0007087C186D286E386F486215031093D9627
:1022C0002115310591F7825B9F4F22E08C3E9207EA
:1022D00049F71092ED021092EC02FF90EF90DF9020
:1022E000CF9008952F923F924F925F926F927F927C
:1022F0008F929F92AF92BF92CF92DF92EF92FF9216
:102300000F931F93CF93DF93CDB7DEB761970FB6CF
:10231000F894DEBF0FBECDBF2090EC02222D30E03E
:102320006091ED02462F50E07EE4729FF001739FB2
:10233000F00D11248DE0869FE00DF11D1124EC5469
:10234000FE4F8081843008F0B1C090E0FC01E95C70
:10235000FE4F7081798B8D5C9E4FFC017081FEE495
:102360002F9E10011124C1018C549E4F1C0110E0BE
:1023700000E0E62FF0E0F887EF83FDE0F49FC00176
:10238000F59F900D11246EE4629FA001639F500D94
:102390001124840F951FFC01EC54FE4FFA83E9834E
:1023A0003996FA87E98729813A812B5F3F4F3C872D
:1023B0002B875989452F50E05E874D87872F90E006
:1023C000988B8F87EF81F8850E171F0708F07AC06A
:1023D000F1018081843008F06CC090E0FC01E95C80
:1023E000FE4F20812B838D5C9E4FFC01F081FC838E
:1023F000F101418452846384748420E030E040E839
:102400005FE365817681878190850E944A270E94DB
:10241000B6276B017E836D83E985FA858080918084
:10242000A280B380EB85FC8560817181828193817C
:102430000E94B6279B014D855E85640F751FC616E9
:10244000D706D4F5EB818E2F90E0C80ED91E2C153F
:102450003D0594F5C301B2010E94B6276B01C50189
:10246000B4010E94B6274F855889460F571FC416DE
:10247000D50614F54C81242F30E0C20ED31E6C1506
:102480007D05D4F4509101015B83652F70E090E0ED
:1024900080E00E942826E981FA816583768387831C
:1024A0009087FB81FF5FF093010136CF198A70E0BE
:1024B00056CF1B821C829CCF0F5F1F4F2DE0220E38
:1024C000311C80CF209101014989240F3327331F0C
:1024D00081E0203531050CF080E061960FB6F8946C
:1024E000DEBF0FBECDBFDF91CF911F910F91FF9047
:1024F000EF90DF90CF90BF90AF909F908F907F90A4
:102500006F905F904F903F902F9008954F925F9201
:102510006F927F929F92AF92BF92CF92DF92EF9293
:10252000FF920F931F93CF93DF936C01F12CE12C5B
:10253000B12CA12C8DE0982E0EE48091ED028E1529
:102540001F0409F008F468C02091EC029E9CF00181
:102550009F9CF00D1124822F90E0029FE00DF11D51
:102560001124EC54FE4FC08110E0D0E0C43050F490
:102570002C2F30E0F901E95CFE4F10812D5C3E4FBD
:10258000F901D0819E9CF0019F9CF00D1124089FC1
:102590009001099F300D1124E20FF31FEC54FE4F00
:1025A00041845284638474846581768187819085B7
:1025B0000E94B627F601208131814481420F532FBA
:1025C000511D6417750724F5412F50E0CA01860F8D
:1025D000971F28173907E4F4C301B2010E94B627F8
:1025E000F601228133814581420F532F511D64171B
:1025F000750774F44D2F50E0CA01860F971F2817F6
:10260000390734F4D0E0C55CDE4F8881A80EB11CD8
:10261000FFEFEF1AFF0A91CFC501DF91CF911F9114
:102620000F91FF90EF90DF90CF90BF90AF909F9071
:102630007F906F905F904F900895089590E080E0B4
:102640000895EF92FF920F931F93CF93DF93109211
:10265000720021E030E03093A4012093A301E5E172
:10266000F3E048EDDF011D924A95E9F740EF409312
:102670000E0149E14093140341E752E05093A20157
:102680004093A10130939E0120939D013093DD037F
:102690002093DC0322E42093C00021E02093C100BA
:1026A0002FEF2093D10020E82093CF00EC0121965A
:1026B000FC018491D0931303C093120390E0880F20
:1026C000991FC80FD91FCE010496909311038093D0
:1026D000100335E1E32E33E0F32E10E000E0FE01BD
:1026E000E00FF11F84910E94590DD7018D939C93A7
:1026F0000F5F1F4FB6E3EB0EF11C0430110579F7A5
:1027000084E080937200DF91CF911F910F91FF9031
:10271000EF9008958F929F92AF92BF92EF92FF92A7
:102720000F931F93CF93DF93CDB7DEB7A1970FB66B
:10273000F894DEBF0FBECDBF7C01FA01CB0119A218
:10274000223008F42AE08E010F5D1F4F822E912C5B
:10275000B12CA12CBF01A50194010E942727F901EA
:10276000CA016A304CF5605DD8016E938D01232B50
:10277000242B252B79F790E080E0109761F0FD0184
:1027800001900020E9F73197AF014A1B5B0BBD01B7
:10279000C7010E944F0CA1960FB6F894DEBF0FBE82
:1027A000CDBFDF91CF911F910F91FF90EF90BF9020
:1027B000AF909F908F900895695CD6CFFB010190F8
:1027C0000020E9F73197AF01461B570B0C944F0CD3
:1027D0000C94DA26FC0180819181009711F00C9411
:1027E000B6280895EF92FF920F931F93CF93DF9334
:1027F000EC017B018A0188819981009729F02A8167
:102800003B812417350788F4B8016F5F7F4F0E9422
:102810003F29009791F0998388831B830A832C8139
:102820003D81232B11F4FC0110821D830C83B70121
:10283000888199810E94052A0CC08881998100971E
:1028400011F00E94B628198218821D821C821B82F8
:102850001A82CE01DF91CF911F910F91FF90EF90DF
:1028600008951F920F920FB60F9211248F939F938A
:102870008091E1009091E100937F9093E10083FFCC
:102880000FC01092E90091E09093EB001092EC00E1
:1028900092E39093ED0010920F0398E09093F00074
:1028A00082FF22C093E09093E9009091F200992377
:1028B00019F09AE39093E80090910003992341F076
:1028C00090910003915090930003911101C05D9A83
:1028D00090910E03992341F090910E0391509093A3
:1028E0000E03911101C0289A84FF18C08091E20064
:1028F0008E7E81608093E2008091E1008F7E8093E4
:10290000E100809101038E7E8061809301039F919D
:102910008F910F900FBE0F901F90189580FFF7CFEB
:102920008091E2008E7E80618093E2008091E100E0
:102930008E7E8093E100809101038E7E8160E5CFE1
:102940001F920F920FB60F921124CF92DF92EF9247
:10295000FF920F931F932F933F934F935F936F9328
:102960007F938F939F93AF93BF93EF93FF93CF93F7
:10297000DF93CDB7DEB76C97DEBFCDBF1092E90015
:102980008091E80083FF25C068E0CE0145960E9453
:10299000420C82EF8093E8008D8987FF39C09091C7
:1029A000E80090FFFCCF982F907609F034C19E8903
:1029B0004F89588D2F89F88C911131C0803861F57D
:1029C0008091FF028093F1001092F1008EEF8093CE
:1029D000E8006C960FB6F894DEBF0FBECDBFDF9156
:1029E000CF91FF91EF91BF91AF919F918F917F9187
:1029F0006F915F914F913F912F911F910F91FF9098
:102A0000EF90DF90CF900F900FBE0F901F90189512
:102A10009EEF9093E800C7CF1092F100D5CF913090
:102A200059F48111D3CF4130510581F68091FF02D5
:102A30008D7F8093FF02CACF933049F48111C6CFB6
:102A40004130510519F68091FF028260F2CF953036
:102A500041F48091E80080FFFCCF20682093E300E0
:102A6000B5CF963009F0A9C00B8D1C8D22E01092D5
:102A7000E9001092FD021092FC02F2122EC0109298
:102A8000FB021092FA020E94110C1F8299E09983B6
:102A9000FA8291E09E8390EA98879AEF9987209135
:102AA000FC023091FD02275F3F4F3C832B838D83D7
:102AB0001092E9001092FD021092FC021093FB02AA
:102AC0000093FA0249E050E0BE016F5F7F4F80E063
:102AD0000E94EB0B0E94110C79CF1093FB02009324
:102AE000FA020E94280BDC0112960D911C9101152F
:102AF000110509F451C1D801ED91FC910480F581D3
:102B0000E02DBE016B5E7F4FC8010995009709F06B
:102B10003EC1F80100851185EACFF3E0FF120EC037
:102B20008F89882309F440C0823061F440E860E175
:102B300085EE94E10E942A1B811148CF81E28093A7
:102B4000EB0047CF813029F440E86BE089ED94E158
:102B5000F1CF833099F70E94280BDC011296ED909B
:102B6000FC908E010F5F1F4F6801E114F10479F0B2
:102B7000D701ED91FC910680F781E02DB801C701E6
:102B80000995080F111DF701E084F184EECFD801FB
:102B90001C92F60101900020E9F73197BF016C19F2
:102BA0007D0940E0C601C6CF63EC74E1FB014491AE
:102BB00050E080E80E94EB0B09CF973009F4BECFBC
:102BC000983021F481E08093F10000CF993009F032
:102BD000FDCE837009F0B2CFE0E4F1E081E031E0B6
:102BE00096E32191222371F08093E9003093EB006A
:102BF000DF0111972C912093EC009093ED008F5FF3
:102C0000873079F78EE78093EA001092EA008F8987
:102C100080930F03DBCE8B8D9C8D1092E900109278
:102C2000FD021092FC029093FB028093FA02898DC0
:102C3000811192C08E899D89913A49F4813209F0BF
:102C40007DCF47E050E066E071E080E0B3CF9132A5
:102C500009F074CF833269F48F89988DB0E0A0E0D9
:102C60008093020190930301A0930401B0930501A6
:102C7000ADCE803269F48091E80082FFFCCF67E03E
:102C800086E091E00E94420C8BEF8093E8009ECE9C
:102C9000823209F09BCE8F8980930D01EEEFFFE722
:102CA000859194918B3F9C4D51F1E0E0F8E080914B
:102CB000060190910701A0910801B0910901803BA4
:102CC0009440A105B105F1F480910D0180FD1AC079
:102CD000EE3F8AE0F80789F587E797E791838083DD
:102CE000809160008093FE0288E19BE00FB6F8942B
:102CF000A895809360000FBE9093600067CEEEEFC2
:102D0000FAE0D5CF808191818737974709F05ECE71
:102D1000A895809160008861809360008091FE0298
:102D200080936000EE3F2AE0F20789F08091FE0A6E
:102D30009091FF0A9183808349CE8081918187376A
:102D4000980751F29093FF0A8093FE0AC5CF109224
:102D5000FF0A1092FE0A3ACE0E94280BDC0112965E
:102D60000D911C910115110509F4E8CED801ED91E2
:102D7000FC910190F081E02DBE016B5E7F4FC80198
:102D80000995811123CEF80100851185EBCF181626
:102D900019060CF41BCED2CEF1E0FF12BECE67ECCA
:102DA00074E104CF1F920F920FB60F9211242F934C
:102DB0003F938F939F93AF93BF938091AA0190917C
:102DC000AB01A091AC01B091AD013091A50123E020
:102DD000230F2D3758F50196A11DB11D2093A50194
:102DE0008093AA019093AB01A093AC01B093AD0185
:102DF0008091A6019091A701A091A801B091A9018D
:102E00000196A11DB11D8093A6019093A701A093E7
:102E1000A801B093A901BF91AF919F918F913F916C
:102E20002F910F900FBE0F901F90189526E8230F3B
:102E30000296A11DB11DD2CF2F923F924F925F9269
:102E40006F927F928F929F92AF92BF92CF92DF92BA
:102E5000EF92FF920F931F93CF93DF933DE8C32E22
:102E600031E0D32EC5E1D3E010E000E07724739485
:102E70004BE1942E56E3852E69E0462E6DE3562EE7
:102E800022242A94322CEEA5EE23A9F08FA59E2FA2
:102E90009370891708F49BC0F0E0F595E795F595D8
:102EA000E795EE0FFF1FE455FA4F85919491F601D7
:102EB000928381831FA69CA99923F9F08DA9292FBC
:102EC0002F77022E000C330B821713060CF489C0E7
:102ED0008A8197FF7FC081508A838A8181117CC05B
:102EE00081E08A83EA81F0E0EE0FFF1FE455FA4F9C
:102EF000859194919EA38DA31DAA58A5552321F1D8
:102F00003AA529A5311119C0422F407426FF6CC083
:102F10008DA19EA1850F911D57FD9A9527FD69C032
:102F200097FD65C0442309F466C0863BF4E29F0721
:102F300014F085EB94E29EA38DA381E0830F8AA712
:102F40002F73321708F01AA69BA5992371F0EA8116
:102F5000EE2359F08DA52CA5482F4F71322F3F71CC
:102F6000431708F04AC08F5F8DA749A9442311F188
:102F70003AA9632F607436FF6CC08DA19EA12BA966
:102F800050E027FF69C0840F951F97FD68C0662336
:102F900009F469C0863B44E2940714F085EB94E29F
:102FA0009EA38DA33F71822F8F71831708F05DC0A0
:102FB0002F5F2BAB89A19AA1009709F45DC08F3FC9
:102FC000980709F49AC001979AA389A396C08F5FC6
:102FD0008FA771CF8F5F80CF803408F483CF8FE3CA
:102FE00080CF8F5F8DAB89CF8FA190E093CF90E0A2
:102FF00080E04111A0CF8FA3A0CF807EF1F480E2CA
:103000008DA78DA5807E51F09F3F09F1292F229534
:103010002F70E20F803411F49F70E90F88A9F0E05F
:10302000E80FF11D87FDFA95EE0FFF1FE455FA4FEB
:10303000859194919EA38DA398CF803231F426FD83
:1030400004C09F3F11F080E4DBCF1DA6DACFE0E0A3
:10305000E1CF8FA190E093CF841B950B96CF90E0AA
:1030600080E061119DCF8FA39DCF27FF02C01BAAD7
:10307000A1CF80E88BAB9ECFC8010496672C01C01E
:10308000660C8A95EAF7909E5001919EB00C11242F
:10309000809EC001819E900D11249C012B5E3C4FAF
:1030A000790188819981BC016F5F7F4F7983688343
:1030B000FC014491403408F07CC04A83442319F059
:1030C00088A9480F4A83EA81F0E0EE0FFF1FE4551C
:1030D000FA4F859194919EA38DA389A5811102C079
:1030E0008FA58FA38CA585FD1DA689A19AA1009708
:1030F000C1F28F3F980709F066CF20910E01822F11
:1031000090E0002E02C0959587950A94E2F780FD25
:103110000AC0033009F0F4C18091DE0390E0959578
:10312000879580939C01207F39F58091350390919C
:103130006B03890F9091A103890F9091D703890F99
:1031400009F4E6C18DEEA82E83E0B82E95E1E92EB4
:1031500093E0F92EF70180A10E94590DF7019183A8
:10316000808312A211A2F6E3EF0EF11CAE14BF048D
:1031700089F780EF80930E010F5F1F4FE696F5E011
:10318000CF0ED11C0430110509F07DCEDF91CF9117
:103190001F910F91FF90EF90DF90CF90BF90AF9075
:1031A0009F908F907F906F905F904F903F902F9067
:1031B0000895403A08F009C1E42FE054FF0BEC30C9
:1031C000F10509F4BFC00CF04CC0E530F10509F47D
:1031D000A2C0F4F4E230F10509F49DC094F43097F4
:1031E00009F491C0319709F080CF029699838883C2
:1031F000FB01649168A780E0413409F080E489A76D
:1032000074CFE330F10509F493C0349771F36DCFB7
:10321000E830F10509F462C0A4F4E630F10509F4E0
:1032200087C0379709F061CFFB0164916BA79C01C0
:103230002D5F3F4F39832883FC013296E491ECA740
:1032400054CFEA30F10509F47BC002963B970CF4A9
:1032500071C099838883FB01849168A9680F68AB6A
:1032600044CFE331F10509F477C064F5EF30F1059F
:1032700009F470C0DCF4ED30F10509F469C03E9743
:1032800009F033CFFB012591349129AB9C012D5FCF
:103290003F4F39832883FC0132962591349180E099
:1032A0004E3409F080E4820F8AAB1FCFE131F10583
:1032B00009F450C03CF3029699838883FB01649122
:1032C0006CAB13CFEC35F10509F451C04CF4E4318B
:1032D000F10509F443C0759709F007CF1BA605CF88
:1032E000EE35F10509F45CC00CF454C0EF35F1057E
:1032F00009F0FBCE80910E01862580930E011FA25E
:103300003AA229A2F2CE029699838883FB016491A6
:103310006FA36FA7EACEFB01649168A79C012D5FA4
:103320003F4F39832883FC013296E491E9A7DDCE33
:1033300018A6DBCE99838883FB0164916EA7D5CE56
:103340001EA6D3CE029699838883FB01649187CF12
:1033500018AACBCE19AAC9CE1CAAC7CEFFEFFBA7CD
:10336000029699838883FB0164916CA7BECE029676
:1033700099838883FB016491E09114036E0F60933D
:10338000140370E0C2010E94EC277093A2016093C5
:10339000A101ABCE029699838883FB016491EFCFA4
:1033A000A5E1B3E021E030E0FC01E20FF31FE4917E
:1033B0009096EC9390972F5F3F4FD696253031052E
:1033C00099F705969983888390CE403E28F44F590B
:1033D000550B5AA349A389CE403EA9F4DE0190E0E3
:1033E00080E09695982F882797958795ED91FD9188
:1033F000E4912E2F2F77822BE7FDF3CF8F5B9F4F2A
:103400009AA389A372CE4C3F08F46FCE24E0240F18
:10341000223008F039C04C3FA9F102969983888385
:10342000FB016491E881F9819F012F5F3F4F398350
:103430002883E4915CA15E1701F14F8D842F90E009
:103440007BA1D701A80FB91F51967C93519758962D
:103450005C93D501A80FB91FAA0FBB1FAB5EBC4F71
:103460008091100390911103281B390B14963C9303
:103470002E9313974F5F4F8FECA36BA38CA10E94E9
:10348000590DA0CF60E0CECFDE0190E080E04E3F4E
:1034900029F58BA181111FC0EF8DEE2379F3E15047
:1034A000EF8FF0E0D501AE0FBF1FAA0FBB1FAB5EC1
:1034B000BC4F809110039091110313962D913C9174
:1034C000820F931F99838883EE0DFF1D81898BA343
:1034D000808D8CA30ACE81508BA3D0CF9695982F48
:1034E000882797958795ED91FD91E4913E2F3F7741
:1034F000832BE7FDF3CF680F791F79836883F5CDC0
:103500008DA19EA1F601928381838FA180830BCE32
:1035100088EDE5E1F3E011928A95E9F710927200E7
:103520002BCE2F922FB62F9320918C012095209394
:103530008C0109F08BC0BF93AF930F921F92209123
:10354000980100909A01020E00929A01209199012F
:1035500010909B01121E10929B01B12DB7FDB095EA
:10356000BB0FA0919701B058BA02110CA12D209168
:103570008E0100909001020E0092900120918F0127
:1035800010909101121E10929101212D220F2121E4
:10359000B0918D0127FDB195AB0F20919301009063
:1035A0009501020E009295012091940110909601D0
:1035B000121E10929601B091920117FCB195AB0FBB
:1035C000B1E000909D0110909E01000C111C17FCB1
:1035D0000B2616FC0B2600929D0110929E01B091C5
:1035E0009C0117FCB195AB0FB0910001AB0FA093FC
:1035F000CF00B091A401A091A301119729F0B0933D
:10360000A401A093A3011EC0B091A201A091A101A9
:10361000B093A401A093A30178943F934F935F9339
:103620006F937F938F939F93EF93FF9311240E9447
:103630001C17FF91EF919F918F917F916F915F91F7
:103640004F913F911F900F90AF91BF912F912FBE3F
:103650002F901895EF92FF920F931F93CF93DF93C4
:10366000F82E192FE62E042F81E0860F880F0E9476
:10367000BD0B83E00E94BD0BCF2DD12FEC0EFD2E94
:10368000F11CCE15DF05B9F007FF13C0FE018491D0
:103690000E94BD0B182F80E00E94BD0B8123219654
:1036A0008111EFCFDF91CF911F910F91FF90EF909C
:1036B00008958881EDCF81E0F5CFCF92DF92EF9230
:1036C000FF92CF93E4EBF1E010828AE0C82E87ED01
:1036D000D82E83E2E82E8CE3F82EC182D282E382D8
:1036E000F48240E050E060E272E4458356836783F1
:1036F000708780E090E0A0E8BFE381879287A3878E
:10370000B487C686D786E08AF18A428B538B648B56
:10371000758B868B978BA08FB18F22E02587C38E08
:10372000D48EE58EF68E478F50A361A372A383A338
:1037300094A3A5A3B6A3C3E0C28FC0A6D1A6E2A658
:10374000F3A644A755A766A777A780AB91ABA2AB1A
:10375000B3AB31E037A314AAC5AAD6AAE7AAF0AE44
:1037600041AF52AF63AF74AF8093F1019093F20118
:10377000A093F301B093F401C092F601D092F70147
:10378000E092F801F092F9014093FA015093FB01A5
:103790006093FC017093FD018093FE019093FF0103
:1037A000A0930002B09301022093F501EAE0CE2E2F
:1037B000E7EDDE2EE3EAEE2EECE3FE2EC0920302EE
:1037C000D0920402E0920502F092060240930702B2
:1037D000509308026093090270930A0280930B02CF
:1037E00090930C02A0930D02B0930E02209302025C
:1037F00010920F02FFE8CF2EF2ECDF2EF5EFEF2E46
:10380000FCE3FF2EC0921002D0921102E09212024D
:10381000F092130240931402509315026093160223
:10382000709317028093180290931902A0931A02C2
:10383000B0931B02C0921D02D0921E02E0921F02A2
:10384000F0922002409321025093220260932302BF
:10385000709324028093250290932602A09327025E
:10386000B093280220931C0210922902C0922A02CF
:10387000D0922B02E0922C02F0922D0240932E0265
:1038800050932F0260933002709331028093320282
:1038900090933302A0933402B0933502C092370262
:1038A000D0923802E0923902F0923A0240933B0201
:1038B00050933C0260933D0270933E0280933F021E
:1038C00090934002A0934102B0934202309336029B
:1038D000C0924402D0924502E0924602F092470222
:1038E000409348025093490260934A0270934B02FE
:1038F00080934C0290934D02A0934E02B0934F02DE
:10390000C0934302C0925102D0925202E0925302FD
:10391000F09254024093550250935602609357021E
:10392000709358028093590290935A02A0935B02BD
:10393000B0935C0230935002EAE0CE2EE7EDDE2E2B
:10394000E3E2EE2EEDE3FE2EC0925E02D0925F0225
:10395000E0926002F092610240936202509363022F
:10396000609364027093650280936602909367028D
:10397000A0936802B093690230935D02C0926B021B
:10398000D0926C02E0926D02F0926E0240936F0250
:10399000509370026093710270937202809373026D
:1039A00090937402A0937502B093760220936A02FA
:1039B000C0927802D0927902E0927A02F0927B0271
:1039C00040937C0250937D0260937E0270937F024D
:1039D0008093800290938102A0938202B09383022D
:1039E000C0937702C0928502D0928602E09287024D
:1039F000F09288024093890250938A0260938B026E
:103A000070938C0280938D0290938E02A0938F020C
:103A1000B0939002C0938402C0929202D09293021B
:103A2000E0929402F092950240939602509397028E
:103A3000609398027093990280939A0290939B02EC
:103A4000A0939C02B0939D0220939102FCECCF2E98
:103A5000DC2CFCE4EF2EFDE3FF2EC0929F02D092FF
:103A6000A002E092A102F092A2024093A30250931E
:103A7000A4026093A5027093A6028093A70290937C
:103A8000A802A093A902B093AA0230939E021092BA
:103A9000AB02C092AC02D092AD02E092AE02F092C4
:103AA000AF024093B0025093B1026093B2027093A0
:103AB000B3028093B4029093B502A093B602B09380
:103AC000B702C092B902D092BA02E092BB02F09261
:103AD000BC024093BD025093BE026093BF0270933C
:103AE000C0028093C1029093C202A093C302B0931C
:103AF000C4022093B802C092C602D092C702E092DC
:103B0000C802F092C9024093CA025093CB0260935C
:103B1000CC027093CD028093CE029093CF02A093FB
:103B2000D002B093D102C093C502C092D302D0920A
:103B3000D402E092D502F092D6024093D70250937D
:103B4000D8026093D9027093DA028093DB029093DB
:103B5000DC02A093DD02B093DE022093D202C09279
:103B6000E002D092E102E092E202F092E30240939E
:103B7000E4025093E5026093E6027093E7028093BB
:103B8000E8029093E902A093EA02B093EB0230932B
:103B9000DF02E2EFF2E0138212828BE291E0918386
:103BA0008083CF91FF90EF90DF90CF900895FC013C
:103BB000118210821382128215821482FB010190FD
:103BC0000020E9F73197AF01461B570B0C94F21315
:103BD000EDEEF7E01382128288EE93E0A0E0B0E011
:103BE00084839583A683B7838AE491E0918380835D
:103BF0008FEF9FEF9587848768E571E08DE398E00C
:103C00000E94D71D6CE571E083E498E00E94D71D07
:103C100064E671E089E498E00E94D71D6CE671E0EB
:103C20008FE498E00E94D71D0C945D1BCF93DF9327
:103C3000CDB7DEB7E1970FB6F894DEBF0FBECDBFAC
:103C4000789484B5826084BD84B5816084BD85B577
:103C5000826085BD85B5816085BD80916E00816083
:103C600080936E0010928100809181008260809329
:103C7000810080918100816080938100809180002B
:103C80008160809380008091910082608093910098
:103C9000809191008160809391008091900081607B
:103CA000809390008091C10084608093C1008091D6
:103CB000C10082608093C1008091C10081608093C7
:103CC000C1008091C30081608093C3008091C000D7
:103CD00082608093C0008091C20081608093C200A6
:103CE00080917A00846080937A0080917A0082606B
:103CF00080937A0080917A00816080937A0080912D
:103D00007A00806880937A0010920F031092FF026D
:103D1000109201038091D70081608093D70080EAE0
:103D20008093D80089B5806189BD89B5826089BDDD
:103D300009B400FEFDCF61E070E080E090E00E94F9
:103D4000A10C8091D8008F7C80618093D8008091F5
:103D5000E000807F8093E0008091E1008E7E809380
:103D6000E1008DE08093E200559A209A81EC8093E7
:103D70007C0085B1806F85B984B1877E84B984B1B8
:103D8000876E84B95E9A5F988AB1806D8AB9769A97
:103D90006E9881B3806F81BB899880B38D7080BB32
:103DA00080E58CBD81E08DBD85E090E00E94240E11
:103DB0005F9A85E090E00E94240E5E985C98ECED9E
:103DC000F6E089EE96E024912EBD00000DB407FECA
:103DD000FDCF31968E179F07B1F75C9A81E88093EB
:103DE00064008091650081608093650080E00E949E
:103DF000A70A80E80E943F0E8823A9F05C9885EA14
:103E00008EBD00000DB407FEFDCF5C9A2E982F9852
:103E10002D988091640080628093640081E083BF6C
:103E2000889513BEFCCF84E00E943F0E882309F4DE
:103E300048C02D9884E80E943F0E8823E1F00E943C
:103E4000220E88EC90E00E94240E2F9882E090E0F1
:103E50000E94DA268F3F29F06FEF82E090E00E9407
:103E6000E22684EF91E00E94240E2F9A84E80E94BB
:103E70003F0E8111FBCF84E10E943F0E8823E1F0C9
:103E80000E94220E88EC90E00E94240E2E9882E080
:103E900090E00E94DA26882329F060E082E090E03A
:103EA0000E94E22684EF91E00E94240E2E9A84E183
:103EB0000E943F0E8111FBCF88EC90E00E94240EFF
:103EC000B2CF0E94220E82E090E00E94E813882385
:103ED00009F465C00E94310E81E090E00E94E81371
:103EE00081FF14C0282F2470322E82FD2E9801EFFE
:103EF0001FEFA8E0AA2EB12C80E40E943F0E882379
:103F000009F450C02E9A2F9A0E94220E82E390E06C
:103F10000E94240E0E94290E182F8111F7CF0E94B3
:103F2000310EEDEEF3E011111FEF00241193119308
:103F3000119311930394D1F71092EF021092EE02B5
:103F40001092F1021092F00249EE56E070E060E04B
:103F500090E080E00E948F0E81E00E94A70A88EB2B
:103F60009BE00E94240E72E5272E312C2FB7F89487
:103F70008091AA019091AB01A091AC01B091AD01EB
:103F80002FBF2091B001222309F4D1C01092B001BB
:103F900080E090E0892B51F30E940000E4CF3E982E
:103FA0003F989ACF332029F00430110511F42E9A4E
:103FB0002F9881E00E94A70A980117FF04C02227CA
:103FC0003327201B310B27703327C80117FD0796B5
:103FD000F3E095958795FA95E1F717FF05C00197EE
:103FE000A501421B530B9A01BC017695762F6627DB
:103FF0007795679563517C4FB0E0A0E02501421AA8
:10400000530A8E3F5FEF950709F43FC07B0150E0F4
:1040100040E0FD01E45DF94F4F013B01F0E86F0E18
:10402000711C8F3F980779F0F401E40FF51FE491BC
:10403000F0E06F01022E01C0CC0C0A94EAF7F70100
:10404000D488CD28C48A21153105B9F0F401E40FD4
:10405000F51F24906301C40ED51EE22DF0E0042C60
:1040600002C0F595E7950A94E2F7FD8BEC8BF6011B
:104070002488FC892F2AF601248A4F5F5F4FFFEFC7
:10408000EF1AFF0A4835510561F60196A85ABF4F4D
:1040900060587F4FA03BB10509F0B3CF80E00E948C
:1040A000A70A8FE090E00E94240E0F5F1F4F093196
:1040B000110509F021CF332011F02F9A2D9880E9B6
:1040C00091E00E94240E0E94220E81E090E00E9466
:1040D000E81380FF1BCF8AE090E00E94E8139FEF77
:1040E000980F9E3F08F012CF22E330E03093F102A8
:1040F0002093F00228E330E03093EF022093EE02A9
:104100000BE010E0682F82EF92E00E94DF10C80100
:104110000E94E8130F5F1F4F0131110599F780E0EE
:104120000E94A70A88EE93E00E94240EEFCE209111
:10413000B101382F321B303140F43F3009F428CF21
:1041400081E083BF889513BE23CF11E01093B001A7
:104150008093B1018091AE019091AF01019690934F
:10416000AF018093AE018091F8028093F7020E9424
:10417000290E8093F8028091F902823009F487C4F5
:1041800048F48823F9F0813009F44AC081E00E94A4
:10419000A70AFECE833009F49BC48430B9F74AE7FE
:1041A00058E070E060E090E080E00E948F0E809127
:1041B000B20181119FC48FE89BE00E9421131093EC
:1041C000B20198C440E651E170E060E090E080E028
:1041D0000E948F0E46E050E05093F1024093F002AF
:1041E00081E390E09093EF028093EE0263E771E049
:1041F00082EF92E00E94DE138091F602811106C0E8
:104200008BE494E10E9421131093F60288E00E944F
:10421000340E882309F456C481E08093F902B6CFA6
:1042200088E00E94340E811130C484E00E94340E74
:1042300081112BC486E0E5E1F1E0DE011D960190DD
:104240000D928A95E1F786E0EBE1F1E0DE01179649
:1042500001900D928A95E1F746E770E060E085E015
:1042600090E00E94B60A46E76FE370E085E090E0D8
:104270000E94B60A05E010E041E0B80190E080E05D
:104280000E94990F0F5F1F4F0B331105A9F705E02F
:1042900010E041E0B8018FE790E00E94990F0F5FB6
:1042A0001F4F0B331105A9F741E065E070E085E091
:1042B00090E00E943B1042E065E070E08AE790E009
:1042C0000E943B1044E06AE370E08AE790E00E94BD
:1042D0003B1048E06AE370E085E090E00E943B100C
:1042E00024E330E040E850E064E370E090E080E0F8
:1042F0000E94B70F24E330E040E550E070E060E05A
:1043000080E590E00E94B70F44E551E16CE270E077
:1043100084E290E00E948F0E2BE230E04CE450E00B
:104320006BE270E084E090E00E94B70FA090ED0295
:1043300096E08A2DA91201C085E0F12CE12CC82E4F
:10434000D12C5DE0952E6EE4862ECE14DF0408F4A9
:1043500041C08091EC029E9C80019F9C100D112415
:10436000889E000D111D11240C541E4FF80165810B
:104370007681878190850E94BD27B62EF8016185E0
:104380007285838594850E94BD27F80180818130E4
:1043900091F040F08230A1F08330B9F0FFEFEF1AD6
:1043A000FF0AD3CF70E020E04AE451E18B2D90E08A
:1043B0000E946B0DF3CF70E020E048E251E1F6CFB0
:1043C00070E020E046E151E1F1CF70E020E044E010
:1043D00051E1ECCF25E02A1508F44BC33092F102ED
:1043E0002092F00242E050E05093EF024093EE0240
:1043F0006BE771E082EF92E00E94DE1384E690E0CA
:104400009093F1028093F002E2E0F0E0F093EF028B
:10441000E093EE024091EC0250E070E060E02AE0B0
:1044200082EF92E00E948A133092F1022092F00211
:104430002AE030E03093EF022093EE02E091EC02AC
:104440008091ED02E82EF12C0E2F10E03EE4E39F68
:10445000F00111244DE0849FE00DF11D1124EC5476
:10446000FE4FE0811A8219821C821B821E821D82ED
:1044700056E0E59FF0011124E35CF74F6081718104
:104480006115710531F044815581CE0101960E947C
:10449000F2134D815E8169817A8182EF92E00E9400
:1044A0004F0CCE0101960E94EA133092F102209245
:1044B000F00282E190E09093EF028093EE026CE6CE
:1044C00071E082EF92E00E94DE133092F1022092BE
:1044D000F0028AE190E09093EF028093EE023DE0DB
:1044E000D32EDE9CF001DF9CF00D11244EE4F42E5F
:1044F000F09EC001F19E900D1124E80FF91FEC54BD
:10450000FE4FE081F0E0E55CFE4F408150E070E05E
:1045100060E02AE082EF92E00E948A138091ED022F
:10452000853008F053C00091EE021091EF02085F51
:104530001F4F3092F1022092F0021093EF0200938D
:10454000EE026FE771E082EF92E00E94DE1330929C
:10455000F1022092F002085F1F4F1093EF020093C8
:10456000EE028091ED0290E001962091EC02D89E3F
:10457000F001D99EF00D1124F29EE00DF11D1124E1
:10458000EC54FE4FE0811A8219821C821B821E822B
:104590001D8296E0E99FF0011124E35CF74F6081F2
:1045A00071816115710531F044815581CE0101960B
:1045B0000E94F2134D815E8169817A8182EF92E0DF
:1045C0000E944F0CCE0101960E94EA130E947211C4
:1045D000882309F44CC2E091EC028091ED02C82ED0
:1045E000D12CEE2EF12CBEE4EB9FF00111242DE036
:1045F000829FE00DF11D1124EC54FE4F85809680C2
:10460000A780B08480E20E943F0E882371F020E0F2
:1046100030E040E85FE3C501B4010E94232620E0BA
:1046200030E040E05FEB811134C080E40E943F0E37
:10463000882361F18DE08C9DF0018D9DF00D11249A
:104640002EE42E9DC0012F9D900D1124E80FF91F1F
:10465000EC54FE4FE08180E0E43020F4F0E0E95CCF
:10466000FE4F808160E570E0681B7109072E000C29
:10467000880B990B0E942A26A50194010E942326EB
:1046800020E030E040E05FE3811103C020E030E053
:10469000A9018DE08C9D80018D9D100D11246EE48B
:1046A0006E9DC0016F9D900D1124080F191F0C54B1
:1046B0001E4FF80165817681878190850E944A2787
:1046C000F801658376838783908780E10E943F0E9F
:1046D00081112EC180E80E943F0E811129C1F8018D
:1046E00021813281438154816185728583859485DE
:1046F0000E944A27F801618772878387948786E042
:10470000E1E2F1E0DE01119601900D928A95E1F768
:104710008DE08C9DF0018D9DF00D11242EE42E9DD9
:10472000C0012F9D900D1124E80FF91FEC54FE4F8E
:104730008081843008F012C190E0FC01E95CFE4FFA
:10474000208129A38D5C9E4FFC01F081FF8F912C6D
:10475000812C39A1232F30E039AB28AB5F8D452F59
:1047600050E05FA34EA38091ED028B8B8091EC0211
:10477000A82EB12CBB898B2F90E02DE088169906CE
:1047800008F0C3C1289DF001299DF00D11243EE4DD
:104790003A9DC0013B9D900D1124E80FF91FEC5488
:1047A000FE4F8081843008F0DCC090E0FC01E95CC1
:1047B000FE4F40814E8F8D5C9E4FFC01F081F8A32F
:1047C0002DE0289D8001299D100D11243EE43A9D85
:1047D00070013B9DF00C11240E0D1F1D0C541E4F3B
:1047E000F80161857285838594850E94B6276AA346
:1047F0007BA38CA39DA32AA13BA13D8B2C8BF8010D
:10480000458056806780708420E030E040E85FE3B8
:10481000C301B2010E944A270E94B6276AA77BA75C
:104820008CA79DA72AA53BA53FA72EA75B89452F4F
:1048300050E059A748A787018DE09B89899F000D0B
:10484000111D11240C541E4FF8016185728583855A
:1048500094850E94B6276E8B7F8B888F998F2E89C7
:104860003F893B8F2A8FF801C580D680E780F0848E
:10487000C701B6010E94B6277D8F6C8F08A919A9C0
:10488000060F171F2EA53FA520173107CCF43E8D2C
:10489000832F90E04AA55BA5840F951F68177907C1
:1048A0007CF48EA19FA12E893F89820F931F4C8992
:1048B0005D894817590724F4421753070CF066C165
:1048C000C301B2010E94B62760177107E4F4EC8DB2
:1048D000FD8D6E177F07BCF08EA19FA12E893F89A9
:1048E000820F931F4C895D894817590764F458A1BA
:1048F000852F90E0EAA1FBA18E0F9F1F2A8D3B8D93
:10490000281739078CF13E8D632F70E090E080E02E
:104910000E942A26A30192010E944A270E94B627DC
:10492000601771070CF440C0FFEF8F1A9F0A1BCF6E
:104930008DE08C9D80018D9D100D11242EE42E9D07
:10494000C0012F9D900D1124080F191F0C541E4FEC
:1049500020E030E040E85FE3F801C6CE19A21F8EE8
:10496000F6CE1E8E18A22CCF8DE048A559A5849FA7
:104970008001859F100D1124BEE4BA9DC001BB9D2E
:10498000900D1124080F191F0C541E4F20E030E029
:1049900040E85FE3C701B6010E944927F80165833B
:1049A000768387839087C0CF2C8D3D8D62177307E8
:1049B0000CF4BACF8EA19FA14E895F89840F951FF9
:1049C000EC89FD89E817F9070CF0AECFF8A18F2F1D
:1049D00090E02AA13BA1820F931F4A8D5B8D48175F
:1049E00059070CF0A1CFBDE088A599A5B89F80011B
:1049F000B99F100D1124EEE4EA9DC001EB9D900DCE
:104A00001124080F191F0C541E4F20E030E040E81D
:104A10005FE3C701B6010E944A27C0CFE114F10449
:104A2000E9F094E4C92ED12C8B0111270C5B1F4FA8
:104A3000C016D1069CF485E3A82EB12C41E0B50147
:104A4000C6010E94990F3FEFA31AB30A40E4A416CF
:104A5000B104A1F75FEFC51AD50AEACF87ECE80EDB
:104A6000F11C9FE8E91691E0F90608F48FCB84E089
:104A7000D4CB8091EC028F5F8093EC021092ED0218
:104A8000843009F083CB83E0C8CB82E0C6CB45E617
:104A90005EE070E060E090E080E00E948F0EE0E376
:104AA000F0E0F093F102E093F00220E230E0309386
:104AB000EF022093EE0264E871E082EF92E00E9440
:104AC000DE13A4CB84E00E94340E8111A5CB5ECB13
:104AD0004FEA5BE070E060E090E080E00E948F0EC3
:104AE0008091B301811106C085E49EE00E942113EC
:104AF0001093B30188E00E94340E882309F446CB5A
:104B00001092F9020E94421141CB289F8001299FF7
:104B1000100D11242EE42A9DC0012B9D900D11240F
:104B2000080F191F0C541E4FF8016185728583858B
:104B300094850E94B6274B017B01F801658176813F
:104B4000878190850E94B62729813A814B815C81BB
:104B5000AE81ED81E20FF32FF11D6E177F07F4F4A4
:104B6000B9A1EB2FF0E06E0F7F1F26173707B4F4C3
:104B7000A40FB52FB11DEA16FB0684F4EF8D8E2F1E
:104B800090E0880E991E4815590544F48B898F5F73
:104B90008093ED028FED90E10E942113CE010796E4
:104BA0000E9486127C01CE010D960E948612E81AA0
:104BB000F90A21E0F7FC05C020E0E114F10409F056
:104BC00022E045EC50E166E370E08CE390E00E9467
:104BD0006B0D2CE32E9DC0012F9D900D112468ECD0
:104BE00070E00E94EC27F7FE19CFA62EA1948B014E
:104BF000045C1F4FA00EB12EB11C0A151B050CF052
:104C00002DCF25E3C22ED12C41E0B601C8010E9470
:104C1000990FFFEFCF1ADF0A20E4C216D104A1F7E3
:104C20000F5F1F4FEACF8FE498E00E94EA1389E4F8
:104C300098E00E94EA1383E498E00E94EA138DE36F
:104C400098E00C94EA130E94652608F481E0089528
:104C5000E89409C097FB3EF4909580957095619516
:104C60007F4F8F4F9F4F9923A9F0F92F96E9BB27CC
:104C70009395F695879577956795B795F111F8CF48
:104C8000FAF4BB0F11F460FF1BC06F5F7F4F8F4FB3
:104C90009F4F16C0882311F096E911C0772321F0A9
:104CA0009EE8872F762F05C0662371F096E8862F41
:104CB00070E060E02AF09A95660F771F881FDAF798
:104CC000880F9695879597F90895990F0008550FC5
:104CD000AA0BE0E8FEEF16161706E807F907C0F082
:104CE00012161306E407F50798F0621B730B840B8A
:104CF000950B39F40A2661F0232B242B252B21F464
:104D000008950A2609F4A140A6958FEF811D811D03
:104D1000089597F99F6780E870E060E008959FEF3D
:104D200080EC089500240A94161617061806090642
:104D3000089500240A941216130614060506089511
:104D4000092E0394000C11F4882352F0BB0F40F499
:104D5000BF2B11F460FF04C06F5F7F4F8F4F9F4FD9
:104D6000089557FD9058440F551F59F05F3F71F05B
:104D70004795880F97FB991F61F09F3F79F08795C2
:104D80000895121613061406551FF2CF4695F1DF4B
:104D900008C0161617061806991FF1CF86957105DB
:104DA000610508940895E894BB2766277727CB010F
:104DB00097F90895F999FECF92BD81BDF89A992788
:104DC00080B50895262FF999FECF1FBA92BD81BDF7
:104DD00020BD0FB6F894FA9AF99A0FBE019608957D
:104DE0002F923F924F925F926F927F928F929F92FB
:104DF000AF92BF92CF92DF92EF92FF920F931F93E9
:104E0000CF93DF93CDB7DEB7CA1BDB0B0FB6F89499
:104E1000DEBF0FBECDBF09942A88398848885F84D9
:104E20006E847D848C849B84AA84B984C884DF804A
:104E3000EE80FD800C811B81AA81B981CE0FD11D2E
:104E40000FB6F894DEBF0FBECDBFED010895A1E20D
:104E50001A2EAA1BBB1BFD010DC0AA1FBB1FEE1FF4
:104E6000FF1FA217B307E407F50720F0A21BB30B3F
:104E7000E40BF50B661F771F881F991F1A9469F7BB
:104E800060957095809590959B01AC01BD01CF0117
:104E900008955058BB27AA270E9461270C94A0268A
:104EA0000E94922638F00E94992620F039F49F3F04
:104EB00019F426F40C948F260EF4E095E7FB0C947D
:104EC0008926E92F0E94B12658F3BA1762077307A3
:104ED0008407950720F079F4A6F50C94D3260EF4F8
:104EE000E0950B2EBA2FA02D0B01B90190010C01FA
:104EF000CA01A0011124FF27591B99F0593F50F412
:104F0000503E68F11A16F040A22F232F342F442769
:104F1000585FF3CF469537952795A795F040539561
:104F2000C9F77EF41F16BA0B620B730B840BBAF031
:104F30009150A1F0FF0FBB1F661F771F881FC2F79C
:104F40000EC0BA0F621F731F841F48F487957795B0
:104F50006795B795F7959E3F08F0B0CF9395880F6A
:104F600008F09927EE0F9795879508950E94BD2721
:104F70006894B1110C94D42608950E94B92688F043
:104F80009F5798F0B92F9927B751B0F0E1F0660F0D
:104F9000771F881F991F1AF0BA95C9F714C0B1304E
:104FA00091F00E94D326B1E008950C94D326672F88
:104FB000782F8827B85F39F0B93FCCF3869577957D
:104FC0006795B395D9F73EF4909580957095619566
:104FD0007F4F8F4F9F4F089597FB072E16F4009435
:104FE00007D077FD09D00E94002807FC05D03EF4C9
:104FF000909581959F4F0895709561957F4F089585
:10500000AA1BBB1B51E107C0AA1FBB1FA617B707EE
:1050100010F0A61BB70B881F991F5A95A9F780950A
:105020009095BC01CD010895EE0FFF1F0590F491FE
:10503000E02D09940F931F93CF93DF938230910556
:1050400010F482E090E0E0915708F091580830E0C9
:1050500020E0B0E0A0E0309799F42115310509F483
:105060004AC0281B390B24303105D8F58A819B8131
:105070006115710589F1FB0193838283FE0111C0E3
:10508000408151810281138148175907E0F0481788
:10509000590799F4109761F012960C931297139692
:1050A0001C933296CF01DF91CF911F910F910895FC
:1050B0000093570810935808F4CF2115310551F08B
:1050C0004217530738F0A901DB019A01BD01DF0146
:1050D000F801C1CFEF01F9CF90935808809357089A
:1050E000CDCFFE01E20FF31F81939193225031093E
:1050F00039832883D7CF2091550830915608232B28
:1051000041F42091110130911201309356082093FF
:10511000550820910F01309110012115310541F4FE
:105120002DB73EB74091130150911401241B350B4C
:10513000E0915508F0915608E217F307A0F42E1BF2
:105140003F0B2817390778F0AC014E5F5F4F2417EB
:10515000350748F04E0F5F1F50935608409355088F
:10516000819391939FCFF0E0E0E09CCFCF93DF93CA
:105170000097E9F0FC01329713821282A091570840
:10518000B0915808ED0130E020E01097A1F42081A3
:105190003181820F931F20915508309156082817AE
:1051A000390709F061C0F0935608E0935508DF9184
:1051B000CF910895EA01CE17DF07E8F54A815B81B8
:1051C0009E0141155105B1F7E901FB83EA8349913D
:1051D0005991C40FD51FEC17FD0761F480819181AF
:1051E0000296840F951FE9019983888382819381B8
:1051F0009B838A83F0E0E0E012968D919C91139757
:105200000097B9F52D913C911197CD010296820F2F
:10521000931F20915508309156082817390739F601
:10522000309751F51092580810925708B0935608CD
:10523000A0935508BCCFD383C28340815181840F92
:10524000951FC817D90761F44E5F5F4F8881998118
:10525000480F591F518340838A819B8193838283A6
:105260002115310509F0B0CFF0935808E0935708A5
:105270009ECFFD01DC01C0CF13821282D7CFB0E0F8
:10528000A0E0E5E4F9E20C94F2268C01009751F4D9
:10529000CB010E941A288C01C801CDB7DEB7E0E12E
:1052A0000C940E27FC01E60FF71F9C0122503109D8
:1052B000E217F30708F49DC0D901CD91DC91119755
:1052C000C617D70798F0C530D10530F3CE01049743
:1052D0008617970708F3C61BD70B2297C193D19364
:1052E0006D937C93CF010E94B628D6CF5B01AC1A98
:1052F000BD0A4C018C0E9D1EA0915708B091580814
:10530000512C412CF12CE12C109731F5809155084E
:10531000909156088815990509F05CC04616570605
:1053200008F058C080910F0190911001009741F44E
:105330008DB79EB74091130150911401841B950BBA
:10534000E817F90708F055C0F0935608E0935508A0
:10535000F90171836083A0CF8D919C911197129672
:105360006C90129713967C901397A815B90559F570
:105370006C0142E0C40ED11CCA14DB0420F1AC0164
:105380004A195B09DA011296159780F062827382DE
:1053900051834083D9016D937C93E114F10471F042
:1053A000D7011396FC93EE93129776CF22968C0F2B
:1053B0009D1FF90191838083F301EFCFF09358088B
:1053C000E093570869CF4816590608F42C017D016F
:1053D000D3019ACFCB010E941A287C01009749F093
:1053E000AE01B8010E94FC29C8010E94B6288701BD
:1053F00053CF10E000E050CFFB01DC0102C0019070
:105400000D9241505040D8F70895FB01DC01019006
:105410000D920020E1F708951AE0CCE7DAE004C02D
:10542000FE010E9414282196CD37D107C9F7F894C0
:02543000FFCFAC
:105432008001FFFFFFFF00E1000000000000F0001C
:1054420000590880000000000028342800000028CD
:105452003404002B004C0800000000DF104F0C1E2B
:10546200131D1309110911081010080A8232640071
:10547200C18081000000000000003C0BD40C5D0BD9
:10548200520BA30B610B7F0B426F7800456C65706A
:10549200686E74004C756767616765005765696778
:1054A20068740050726573732041004C564C004E74
:0C54B2006578740050617573656400003B
:00000001FF
